{
  "_format": "hh-sol-artifact-1",
  "contractName": "SlotMachine",
  "sourceName": "contracts/slotMachine.sol",
  "abi": [
    {
      "inputs": [
        {
          "internalType": "address",
          "name": "tokenAddress",
          "type": "address"
        }
      ],
      "stateMutability": "nonpayable",
      "type": "constructor"
    },
    {
      "inputs": [
        {
          "internalType": "address",
          "name": "owner",
          "type": "address"
        }
      ],
      "name": "OwnableInvalidOwner",
      "type": "error"
    },
    {
      "inputs": [
        {
          "internalType": "address",
          "name": "account",
          "type": "address"
        }
      ],
      "name": "OwnableUnauthorizedAccount",
      "type": "error"
    },
    {
      "anonymous": false,
      "inputs": [
        {
          "indexed": true,
          "internalType": "address",
          "name": "player",
          "type": "address"
        },
        {
          "indexed": false,
          "internalType": "uint32[]",
          "name": "seeds",
          "type": "uint32[]"
        }
      ],
      "name": "FreeSeedsGranted",
      "type": "event"
    },
    {
      "anonymous": false,
      "inputs": [
        {
          "indexed": true,
          "internalType": "address",
          "name": "previousOwner",
          "type": "address"
        },
        {
          "indexed": true,
          "internalType": "address",
          "name": "newOwner",
          "type": "address"
        }
      ],
      "name": "OwnershipTransferred",
      "type": "event"
    },
    {
      "anonymous": false,
      "inputs": [
        {
          "indexed": true,
          "internalType": "address",
          "name": "player",
          "type": "address"
        },
        {
          "indexed": false,
          "internalType": "uint256",
          "name": "amount",
          "type": "uint256"
        }
      ],
      "name": "TokensClaimed",
      "type": "event"
    },
    {
      "inputs": [
        {
          "internalType": "uint256",
          "name": "count",
          "type": "uint256"
        }
      ],
      "name": "buyPlays",
      "outputs": [],
      "stateMutability": "payable",
      "type": "function"
    },
    {
      "inputs": [],
      "name": "claimFreeSpins",
      "outputs": [],
      "stateMutability": "nonpayable",
      "type": "function"
    },
    {
      "inputs": [
        {
          "internalType": "uint256",
          "name": "rawSeed",
          "type": "uint256"
        }
      ],
      "name": "claimTokensBySeed",
      "outputs": [],
      "stateMutability": "nonpayable",
      "type": "function"
    },
    {
      "inputs": [
        {
          "internalType": "address",
          "name": "_playerForView",
          "type": "address"
        },
        {
          "internalType": "uint256",
          "name": "rawLastUsedSeedValue",
          "type": "uint256"
        }
      ],
      "name": "getCalculatedTotalScoreForClaim",
      "outputs": [
        {
          "internalType": "uint256",
          "name": "calculatedScore",
          "type": "uint256"
        },
        {
          "internalType": "uint256",
          "name": "seedsConsideredCount",
          "type": "uint256"
        },
        {
          "internalType": "uint256",
          "name": "lastSeedUserIndexFound",
          "type": "uint256"
        }
      ],
      "stateMutability": "view",
      "type": "function"
    },
    {
      "inputs": [
        {
          "internalType": "uint32",
          "name": "seed",
          "type": "uint32"
        }
      ],
      "name": "getScoreForSeed",
      "outputs": [
        {
          "internalType": "uint256",
          "name": "score",
          "type": "uint256"
        }
      ],
      "stateMutability": "pure",
      "type": "function"
    },
    {
      "inputs": [
        {
          "internalType": "address",
          "name": "_user",
          "type": "address"
        }
      ],
      "name": "getUnclaimedUserSeeds",
      "outputs": [
        {
          "internalType": "address",
          "name": "player",
          "type": "address"
        },
        {
          "internalType": "uint32[]",
          "name": "unclaimedSeeds",
          "type": "uint32[]"
        }
      ],
      "stateMutability": "view",
      "type": "function"
    },
    {
      "inputs": [
        {
          "internalType": "address[]",
          "name": "_players",
          "type": "address[]"
        },
        {
          "internalType": "uint32",
          "name": "_countPerPlayer",
          "type": "uint32"
        }
      ],
      "name": "grantFreeSpinsBatch",
      "outputs": [],
      "stateMutability": "nonpayable",
      "type": "function"
    },
    {
      "inputs": [
        {
          "internalType": "address",
          "name": "",
          "type": "address"
        }
      ],
      "name": "lastClaimedSeed",
      "outputs": [
        {
          "internalType": "uint32",
          "name": "",
          "type": "uint32"
        }
      ],
      "stateMutability": "view",
      "type": "function"
    },
    {
      "inputs": [
        {
          "internalType": "address",
          "name": "",
          "type": "address"
        }
      ],
      "name": "lastClaimedSeedIndex",
      "outputs": [
        {
          "internalType": "uint256",
          "name": "",
          "type": "uint256"
        }
      ],
      "stateMutability": "view",
      "type": "function"
    },
    {
      "inputs": [
        {
          "internalType": "address",
          "name": "",
          "type": "address"
        }
      ],
      "name": "lastClaimedTimestamp",
      "outputs": [
        {
          "internalType": "uint256",
          "name": "",
          "type": "uint256"
        }
      ],
      "stateMutability": "view",
      "type": "function"
    },
    {
      "inputs": [],
      "name": "owner",
      "outputs": [
        {
          "internalType": "address",
          "name": "",
          "type": "address"
        }
      ],
      "stateMutability": "view",
      "type": "function"
    },
    {
      "inputs": [],
      "name": "renounceOwnership",
      "outputs": [],
      "stateMutability": "nonpayable",
      "type": "function"
    },
    {
      "inputs": [],
      "name": "token",
      "outputs": [
        {
          "internalType": "contract tMegaBunnyVerse",
          "name": "",
          "type": "address"
        }
      ],
      "stateMutability": "view",
      "type": "function"
    },
    {
      "inputs": [
        {
          "internalType": "address",
          "name": "newOwner",
          "type": "address"
        }
      ],
      "name": "transferOwnership",
      "outputs": [],
      "stateMutability": "nonpayable",
      "type": "function"
    },
    {
      "inputs": [],
      "name": "withdrawAll",
      "outputs": [],
      "stateMutability": "nonpayable",
      "type": "function"
    },
    {
      "inputs": [],
      "name": "withdrawHalf",
      "outputs": [],
      "stateMutability": "nonpayable",
      "type": "function"
    },
    {
      "stateMutability": "payable",
      "type": "receive"
    }
  ],
  "bytecode": "0x60806040523480156200001157600080fd5b506040516200324938038062003249833981810160405281019062000037919062000235565b33600073ffffffffffffffffffffffffffffffffffffffff168173ffffffffffffffffffffffffffffffffffffffff1603620000ad5760006040517f1e4fbdf7000000000000000000000000000000000000000000000000000000008152600401620000a4919062000278565b60405180910390fd5b620000be816200010760201b60201c565b5080600160006101000a81548173ffffffffffffffffffffffffffffffffffffffff021916908373ffffffffffffffffffffffffffffffffffffffff1602179055505062000295565b60008060009054906101000a900473ffffffffffffffffffffffffffffffffffffffff169050816000806101000a81548173ffffffffffffffffffffffffffffffffffffffff021916908373ffffffffffffffffffffffffffffffffffffffff1602179055508173ffffffffffffffffffffffffffffffffffffffff168173ffffffffffffffffffffffffffffffffffffffff167f8be0079c531659141344cd1fd0a4f28419497f9722a3daafe3b4186f6b6457e060405160405180910390a35050565b600080fd5b600073ffffffffffffffffffffffffffffffffffffffff82169050919050565b6000620001fd82620001d0565b9050919050565b6200020f81620001f0565b81146200021b57600080fd5b50565b6000815190506200022f8162000204565b92915050565b6000602082840312156200024e576200024d620001cb565b5b60006200025e848285016200021e565b91505092915050565b6200027281620001f0565b82525050565b60006020820190506200028f600083018462000267565b92915050565b612fa480620002a56000396000f3fe6080604052600436106100f75760003560e01c806396aae6911161008a578063f2fde38b11610059578063f2fde38b14610303578063f64470761461032c578063f737a28014610355578063fc0c546a14610392576100fe565b806396aae69114610249578063ad2cb21a14610260578063b453082914610289578063d8df3c2a146102c6576100fe565b806371db08c0116100c657806371db08c0146101ad578063853828b6146101c95780638da5cb5b146101e057806393ceccff1461020b576100fe565b806302ee0efb146101035780634f5e62531461014057806370f40be514610157578063715018a614610196576100fe565b366100fe57005b600080fd5b34801561010f57600080fd5b5061012a60048036038101906101259190611f3d565b6103bd565b6040516101379190611f83565b60405180910390f35b34801561014c57600080fd5b506101556103d5565b005b34801561016357600080fd5b5061017e60048036038101906101799190611fca565b610439565b60405161018d9392919061200a565b60405180910390f35b3480156101a257600080fd5b506101ab61061a565b005b6101c760048036038101906101c29190612041565b61062e565b005b3480156101d557600080fd5b506101de6108dc565b005b3480156101ec57600080fd5b506101f5610934565b604051610202919061207d565b60405180910390f35b34801561021757600080fd5b50610232600480360381019061022d9190611f3d565b61095d565b604051610240929190612166565b60405180910390f35b34801561025557600080fd5b5061025e610b47565b005b34801561026c57600080fd5b5061028760048036038101906102829190612227565b610e4e565b005b34801561029557600080fd5b506102b060048036038101906102ab9190612287565b6111a1565b6040516102bd9190611f83565b60405180910390f35b3480156102d257600080fd5b506102ed60048036038101906102e89190611f3d565b6111b3565b6040516102fa9190611f83565b60405180910390f35b34801561030f57600080fd5b5061032a60048036038101906103259190611f3d565b6111cb565b005b34801561033857600080fd5b50610353600480360381019061034e9190612041565b611251565b005b34801561036157600080fd5b5061037c60048036038101906103779190611f3d565b611669565b60405161038991906122c3565b60405180910390f35b34801561039e57600080fd5b506103a761168c565b6040516103b4919061233d565b60405180910390f35b60056020528060005260406000206000915090505481565b6103dd6116b2565b6103e5610934565b73ffffffffffffffffffffffffffffffffffffffff166108fc60024761040b91906123b6565b9081150290604051600060405180830381858888f19350505050158015610436573d6000803e3d6000fd5b50565b600080600080841415801561045157506298967f8411155b610490576040517f08c379a000000000000000000000000000000000000000000000000000000000815260040161048790612444565b60405180910390fd5b60008490506000600260008873ffffffffffffffffffffffffffffffffffffffff1673ffffffffffffffffffffffffffffffffffffffff1681526020019081526020016000209050600080600460008a73ffffffffffffffffffffffffffffffffffffffff1673ffffffffffffffffffffffffffffffffffffffff168152602001908152602001600020549050600083805490509050600084805490508310156106045760008390505b858054905081101561060257818061055190612464565b92505061059586828154811061056a576105696124ac565b5b90600052602060002090600891828204019190066004029054906101000a900463ffffffff16611739565b856105a091906124db565b94508663ffffffff168682815481106105bc576105bb6124ac565b5b90600052602060002090600891828204019190066004029054906101000a900463ffffffff1663ffffffff16036105f557809250610602565b808060010191505061053a565b505b8381839850985098505050505050509250925092565b6106226116b2565b61062c60006118bf565b565b6000601e82036106475766038d7ea4c6800090506106b2565b6046820361065e5766071afd498d000090506106b1565b6096820361067557660e35fa931a000090506106b0565b6040517f08c379a00000000000000000000000000000000000000000000000000000000081526004016106a790612581565b60405180910390fd5b5b5b8034146106f4576040517f08c379a00000000000000000000000000000000000000000000000000000000081526004016106eb906125ed565b60405180910390fd5b60008267ffffffffffffffff8111156107105761070f61260d565b5b60405190808252806020026020018201604052801561073e5781602001602082028036833780820191505090505b5090506000600260003373ffffffffffffffffffffffffffffffffffffffff1673ffffffffffffffffffffffffffffffffffffffff16815260200190815260200160002080549050905060005b84811015610887576107a83382846107a391906124db565b611983565b8382815181106107bb576107ba6124ac565b5b602002602001019063ffffffff16908163ffffffff1681525050600260003373ffffffffffffffffffffffffffffffffffffffff1673ffffffffffffffffffffffffffffffffffffffff168152602001908152602001600020838281518110610827576108266124ac565b5b602002602001015190806001815401808255809150506001900390600052602060002090600891828204019190066004029091909190916101000a81548163ffffffff021916908363ffffffff160217905550808060010191505061078b565b503373ffffffffffffffffffffffffffffffffffffffff167f8392e486332bc2f50581c9ae692d1e1e68233e75624ac9199e69f8785e6b7ee8836040516108ce919061263c565b60405180910390a250505050565b6108e46116b2565b6108ec610934565b73ffffffffffffffffffffffffffffffffffffffff166108fc479081150290604051600060405180830381858888f19350505050158015610931573d6000803e3d6000fd5b50565b60008060009054906101000a900473ffffffffffffffffffffffffffffffffffffffff16905090565b600060608291506000600260008573ffffffffffffffffffffffffffffffffffffffff1673ffffffffffffffffffffffffffffffffffffffff16815260200190815260200160002090506000600460008673ffffffffffffffffffffffffffffffffffffffff1673ffffffffffffffffffffffffffffffffffffffff16815260200190815260200160002054905081805490508110610a4c5783600067ffffffffffffffff811115610a1257610a1161260d565b5b604051908082528060200260200182016040528015610a405781602001602082028036833780820191505090505b50935093505050610b42565b6000818380549050610a5e919061265e565b905060008167ffffffffffffffff811115610a7c57610a7b61260d565b5b604051908082528060200260200182016040528015610aaa5781602001602082028036833780820191505090505b50905060005b82811015610b3657848185610ac591906124db565b81548110610ad657610ad56124ac565b5b90600052602060002090600891828204019190066004029054906101000a900463ffffffff16828281518110610b0f57610b0e6124ac565b5b602002602001019063ffffffff16908163ffffffff16815250508080600101915050610ab0565b50858195509550505050505b915091565b6000600560003373ffffffffffffffffffffffffffffffffffffffff1673ffffffffffffffffffffffffffffffffffffffff1681526020019081526020016000205414158015610be25750612a30600560003373ffffffffffffffffffffffffffffffffffffffff1673ffffffffffffffffffffffffffffffffffffffff16815260200190815260200160002054610bdf91906124db565b42105b15610c22576040517f08c379a0000000000000000000000000000000000000000000000000000000008152600401610c1990612704565b60405180910390fd5b42600560003373ffffffffffffffffffffffffffffffffffffffff1673ffffffffffffffffffffffffffffffffffffffff168152602001908152602001600020819055506000600a67ffffffffffffffff811115610c8357610c8261260d565b5b604051908082528060200260200182016040528015610cb15781602001602082028036833780820191505090505b5090506000600260003373ffffffffffffffffffffffffffffffffffffffff1673ffffffffffffffffffffffffffffffffffffffff16815260200190815260200160002080549050905060005b8251811015610dfb57610d1c338284610d1791906124db565b611983565b838281518110610d2f57610d2e6124ac565b5b602002602001019063ffffffff16908163ffffffff1681525050600260003373ffffffffffffffffffffffffffffffffffffffff1673ffffffffffffffffffffffffffffffffffffffff168152602001908152602001600020838281518110610d9b57610d9a6124ac565b5b602002602001015190806001815401808255809150506001900390600052602060002090600891828204019190066004029091909190916101000a81548163ffffffff021916908363ffffffff1602179055508080600101915050610cfe565b503373ffffffffffffffffffffffffffffffffffffffff167f8392e486332bc2f50581c9ae692d1e1e68233e75624ac9199e69f8785e6b7ee883604051610e42919061263c565b60405180910390a25050565b610e566116b2565b600083839050118015610e6d575060058383905011155b610eac576040517f08c379a0000000000000000000000000000000000000000000000000000000008152600401610ea390612770565b60405180910390fd5b60008163ffffffff16118015610ec9575060328163ffffffff1611155b610f08576040517f08c379a0000000000000000000000000000000000000000000000000000000008152600401610eff906127dc565b60405180910390fd5b60005b8383905081101561119b576000848483818110610f2b57610f2a6124ac565b5b9050602002016020810190610f409190611f3d565b9050600073ffffffffffffffffffffffffffffffffffffffff168173ffffffffffffffffffffffffffffffffffffffff1603610fb1576040517f08c379a0000000000000000000000000000000000000000000000000000000008152600401610fa89061286e565b60405180910390fd5b60008363ffffffff1667ffffffffffffffff811115610fd357610fd261260d565b5b6040519080825280602002602001820160405280156110015781602001602082028036833780820191505090505b5090506000600260008473ffffffffffffffffffffffffffffffffffffffff1673ffffffffffffffffffffffffffffffffffffffff16815260200190815260200160002080549050905060005b8563ffffffff1681101561113c57600061107385838561106e91906124db565b611983565b905080848381518110611089576110886124ac565b5b602002602001019063ffffffff16908163ffffffff1681525050600260008673ffffffffffffffffffffffffffffffffffffffff1673ffffffffffffffffffffffffffffffffffffffff1681526020019081526020016000208190806001815401808255809150506001900390600052602060002090600891828204019190066004029091909190916101000a81548163ffffffff021916908363ffffffff16021790555050808060010191505061104e565b508273ffffffffffffffffffffffffffffffffffffffff167f8392e486332bc2f50581c9ae692d1e1e68233e75624ac9199e69f8785e6b7ee883604051611183919061263c565b60405180910390a25050508080600101915050610f0b565b50505050565b60006111ac82611739565b9050919050565b60046020528060005260406000206000915090505481565b6111d36116b2565b600073ffffffffffffffffffffffffffffffffffffffff168173ffffffffffffffffffffffffffffffffffffffff16036112455760006040517f1e4fbdf700000000000000000000000000000000000000000000000000000000815260040161123c919061207d565b60405180910390fd5b61124e816118bf565b50565b6000811415801561126557506298967f8111155b6112a4576040517f08c379a000000000000000000000000000000000000000000000000000000000815260040161129b906128da565b60405180910390fd5b60008190506000600260003373ffffffffffffffffffffffffffffffffffffffff1673ffffffffffffffffffffffffffffffffffffffff1681526020019081526020016000209050600080600460003373ffffffffffffffffffffffffffffffffffffffff1673ffffffffffffffffffffffffffffffffffffffff16815260200190815260200160002054905060008380549050905060008290505b84805490508110156113c9576000858281548110611361576113606124ac565b5b90600052602060002090600891828204019190066004029054906101000a900463ffffffff16905061139281611739565b8561139d91906124db565b94508663ffffffff168163ffffffff16036113bb57819250506113c9565b508080600101915050611340565b506000831161140d576040517f08c379a00000000000000000000000000000000000000000000000000000000081526004016114049061296c565b60405180910390fd5b83805490508110611453576040517f08c379a000000000000000000000000000000000000000000000000000000000815260040161144a90612a24565b60405180910390fd5b6000670de0b6b3a764000090506000818561146e9190612a44565b905084828261147d91906123b6565b148061149557506000851480156114945750600081145b5b6114d4576040517f08c379a00000000000000000000000000000000000000000000000000000000081526004016114cb90612af8565b60405180910390fd5b86600360003373ffffffffffffffffffffffffffffffffffffffff1673ffffffffffffffffffffffffffffffffffffffff16815260200190815260200160002060006101000a81548163ffffffff021916908363ffffffff16021790555060018361153f91906124db565b600460003373ffffffffffffffffffffffffffffffffffffffff1673ffffffffffffffffffffffffffffffffffffffff16815260200190815260200160002081905550600160009054906101000a900473ffffffffffffffffffffffffffffffffffffffff1673ffffffffffffffffffffffffffffffffffffffff166340c10f1933836040518363ffffffff1660e01b81526004016115df929190612b18565b600060405180830381600087803b1580156115f957600080fd5b505af115801561160d573d6000803e3d6000fd5b505050503373ffffffffffffffffffffffffffffffffffffffff167f896e034966eaaf1adc54acc0f257056febbd300c9e47182cf761982cf1f5e430826040516116579190611f83565b60405180910390a25050505050505050565b60036020528060005260406000206000915054906101000a900463ffffffff1681565b600160009054906101000a900473ffffffffffffffffffffffffffffffffffffffff1681565b6116ba611a30565b73ffffffffffffffffffffffffffffffffffffffff166116d8610934565b73ffffffffffffffffffffffffffffffffffffffff1614611737576116fb611a30565b6040517f118cdaa700000000000000000000000000000000000000000000000000000000815260040161172e919061207d565b60405180910390fd5b565b60008060008061174885611a38565b925092509250600061175984611d25565b9050600061176684611d25565b9050600061177384611d25565b905060009650848614801561178757508385145b156117a1578261271061179a9190612a44565b96506118b4565b848614806117ae57508385145b806117b857508386145b156118495760008587146117da578486146117d357866117d5565b855b6117dc565b865b905060008688146117fb578587146117f457866117f6565b875b6117fd565b855b905061180882611d25565b6103e86118159190612a44565b9850600581106118425761182881611d25565b60646118349190612a44565b8961183f91906124db565b98505b50506118b3565b6005861061186c5782606461185e9190612a44565b8761186991906124db565b96505b6005851061188f578160646118819190612a44565b8761188c91906124db565b96505b600584106118b2578060646118a49190612a44565b876118af91906124db565b96505b5b5b505050505050919050565b60008060009054906101000a900473ffffffffffffffffffffffffffffffffffffffff169050816000806101000a81548173ffffffffffffffffffffffffffffffffffffffff021916908373ffffffffffffffffffffffffffffffffffffffff1602179055508173ffffffffffffffffffffffffffffffffffffffff168173ffffffffffffffffffffffffffffffffffffffff167f8be0079c531659141344cd1fd0a4f28419497f9722a3daafe3b4186f6b6457e060405160405180910390a35050565b600080600090506000600143611999919061265e565b40905060005b60078160ff161015611a245760006001600988888587466040516020016119ca959493929190612c18565b6040516020818303038152906040528051906020012060001c6119ed9190612c77565b6119f791906124db565b90508060ff16600a85611a0a9190612ca8565b611a149190612ce5565b935050808060010191505061199f565b50819250505092915050565b600033905090565b60008060006210f4478463ffffffff1610158015611a5f57506298967f8463ffffffff1611155b611a9e576040517f08c379a0000000000000000000000000000000000000000000000000000000008152600401611a9590612d69565b60405180910390fd5b6000611aaf8563ffffffff16611d75565b90506007815114611af5576040517f08c379a0000000000000000000000000000000000000000000000000000000008152600401611aec90612dd5565b60405180910390fd5b60007f300000000000000000000000000000000000000000000000000000000000000060f81c82600181518110611b2f57611b2e6124ac565b5b602001015160f81c60f81b60f81c611b479190612df5565b60ff16905060007f300000000000000000000000000000000000000000000000000000000000000060f81c83600381518110611b8657611b856124ac565b5b602001015160f81c60f81b60f81c611b9e9190612df5565b60ff16905060007f300000000000000000000000000000000000000000000000000000000000000060f81c84600581518110611bdd57611bdc6124ac565b5b602001015160f81c60f81b60f81c611bf59190612df5565b60ff16905060018310158015611c0c575060098311155b611c4b576040517f08c379a0000000000000000000000000000000000000000000000000000000008152600401611c4290612e76565b60405180910390fd5b60018210158015611c5d575060098211155b611c9c576040517f08c379a0000000000000000000000000000000000000000000000000000000008152600401611c9390612ee2565b60405180910390fd5b60018110158015611cae575060098111155b611ced576040517f08c379a0000000000000000000000000000000000000000000000000000000008152600401611ce490612f4e565b60405180910390fd5b600183611cfa919061265e565b9650600182611d09919061265e565b9550600181611d18919061265e565b9450505050509193909250565b600060058203611d385760029050611d70565b60068203611d495760039050611d70565b60078203611d5a5760049050611d70565b60088203611d6b5760059050611d70565b600190505b919050565b606060008203611dbc576040518060400160405280600181526020017f30000000000000000000000000000000000000000000000000000000000000008152509050611ed0565b600082905060005b60008214611dee578080611dd790612464565b915050600a82611de791906123b6565b9150611dc4565b60008167ffffffffffffffff811115611e0a57611e0961260d565b5b6040519080825280601f01601f191660200182016040528015611e3c5781602001600182028036833780820191505090505b5090505b60008514611ec957600182611e55919061265e565b9150600a85611e649190612c77565b6030611e7091906124db565b60f81b818381518110611e8657611e856124ac565b5b60200101907effffffffffffffffffffffffffffffffffffffffffffffffffffffffffffff1916908160001a905350600a85611ec291906123b6565b9450611e40565b8093505050505b919050565b600080fd5b600080fd5b600073ffffffffffffffffffffffffffffffffffffffff82169050919050565b6000611f0a82611edf565b9050919050565b611f1a81611eff565b8114611f2557600080fd5b50565b600081359050611f3781611f11565b92915050565b600060208284031215611f5357611f52611ed5565b5b6000611f6184828501611f28565b91505092915050565b6000819050919050565b611f7d81611f6a565b82525050565b6000602082019050611f986000830184611f74565b92915050565b611fa781611f6a565b8114611fb257600080fd5b50565b600081359050611fc481611f9e565b92915050565b60008060408385031215611fe157611fe0611ed5565b5b6000611fef85828601611f28565b925050602061200085828601611fb5565b9150509250929050565b600060608201905061201f6000830186611f74565b61202c6020830185611f74565b6120396040830184611f74565b949350505050565b60006020828403121561205757612056611ed5565b5b600061206584828501611fb5565b91505092915050565b61207781611eff565b82525050565b6000602082019050612092600083018461206e565b92915050565b600081519050919050565b600082825260208201905092915050565b6000819050602082019050919050565b600063ffffffff82169050919050565b6120dd816120c4565b82525050565b60006120ef83836120d4565b60208301905092915050565b6000602082019050919050565b600061211382612098565b61211d81856120a3565b9350612128836120b4565b8060005b8381101561215957815161214088826120e3565b975061214b836120fb565b92505060018101905061212c565b5085935050505092915050565b600060408201905061217b600083018561206e565b818103602083015261218d8184612108565b90509392505050565b600080fd5b600080fd5b600080fd5b60008083601f8401126121bb576121ba612196565b5b8235905067ffffffffffffffff8111156121d8576121d761219b565b5b6020830191508360208202830111156121f4576121f36121a0565b5b9250929050565b612204816120c4565b811461220f57600080fd5b50565b600081359050612221816121fb565b92915050565b6000806000604084860312156122405761223f611ed5565b5b600084013567ffffffffffffffff81111561225e5761225d611eda565b5b61226a868287016121a5565b9350935050602061227d86828701612212565b9150509250925092565b60006020828403121561229d5761229c611ed5565b5b60006122ab84828501612212565b91505092915050565b6122bd816120c4565b82525050565b60006020820190506122d860008301846122b4565b92915050565b6000819050919050565b60006123036122fe6122f984611edf565b6122de565b611edf565b9050919050565b6000612315826122e8565b9050919050565b60006123278261230a565b9050919050565b6123378161231c565b82525050565b6000602082019050612352600083018461232e565b92915050565b7f4e487b7100000000000000000000000000000000000000000000000000000000600052601260045260246000fd5b7f4e487b7100000000000000000000000000000000000000000000000000000000600052601160045260246000fd5b60006123c182611f6a565b91506123cc83611f6a565b9250826123dc576123db612358565b5b828204905092915050565b600082825260208201905092915050565b7f496e76616c6964207261774c617374557365645365656456616c756500000000600082015250565b600061242e601c836123e7565b9150612439826123f8565b602082019050919050565b6000602082019050818103600083015261245d81612421565b9050919050565b600061246f82611f6a565b91507fffffffffffffffffffffffffffffffffffffffffffffffffffffffffffffffff82036124a1576124a0612387565b5b600182019050919050565b7f4e487b7100000000000000000000000000000000000000000000000000000000600052603260045260246000fd5b60006124e682611f6a565b91506124f183611f6a565b925082820190508082111561250957612508612387565b5b92915050565b7f496e76616c696420636f756e7420666f7220627579506c6179732e205375707060008201527f6f7274656420636f756e74733a2033302c2037302c203135302e000000000000602082015250565b600061256b603a836123e7565b91506125768261250f565b604082019050919050565b6000602082019050818103600083015261259a8161255e565b9050919050565b7f496e636f7272656374207061796d656e7420666f7220627579506c6179730000600082015250565b60006125d7601e836123e7565b91506125e2826125a1565b602082019050919050565b60006020820190508181036000830152612606816125ca565b9050919050565b7f4e487b7100000000000000000000000000000000000000000000000000000000600052604160045260246000fd5b600060208201905081810360008301526126568184612108565b905092915050565b600061266982611f6a565b915061267483611f6a565b925082820390508181111561268c5761268b612387565b5b92915050565b7f46726565207370696e732063616e206f6e6c7920626520636c61696d6564206f60008201527f6e636520706572203320686f7572732e00000000000000000000000000000000602082015250565b60006126ee6030836123e7565b91506126f982612692565b604082019050919050565b6000602082019050818103600083015261271d816126e1565b9050919050565b7f42617463683a20506c6179657220636f756e74206d75737420626520312d3500600082015250565b600061275a601f836123e7565b915061276582612724565b602082019050919050565b600060208201905081810360008301526127898161274d565b9050919050565b7f42617463683a205370696e20636f756e74206d75737420626520312d35300000600082015250565b60006127c6601e836123e7565b91506127d182612790565b602082019050919050565b600060208201905081810360008301526127f5816127b9565b9050919050565b7f42617463683a20506c6179657220616464726573732063616e6e6f742062652060008201527f7a65726f00000000000000000000000000000000000000000000000000000000602082015250565b60006128586024836123e7565b9150612863826127fc565b604082019050919050565b600060208201905081810360008301526128878161284b565b9050919050565b7f496e76616c6964207365656420666f726d6174206f722076616c756500000000600082015250565b60006128c4601c836123e7565b91506128cf8261288e565b602082019050919050565b600060208201905081810360008301526128f3816128b7565b9050919050565b7f4e6f206e65772073636f726520746f20636c61696d20666f722074686520707260008201527f6f63657373656420736565647320696e20746869732063616c6c000000000000602082015250565b6000612956603a836123e7565b9150612961826128fa565b604082019050919050565b6000602082019050818103600083015261298581612949565b9050919050565b7f50726f7669646564206c617374557365645365656456616c756546726f6d467260008201527f6f6e74656e6420776173206e6f7420666f756e64206f72206e6f7420696e207460208201527f686520636c61696d61626c652072616e6765206f6620746869732063616c6c00604082015250565b6000612a0e605f836123e7565b9150612a198261298c565b606082019050919050565b60006020820190508181036000830152612a3d81612a01565b9050919050565b6000612a4f82611f6a565b9150612a5a83611f6a565b9250828202612a6881611f6a565b91508282048414831517612a7f57612a7e612387565b5b5092915050565b7f5061796f75742063616c63756c6174696f6e20636f6e73697374656e6379206360008201527f6865636b206661696c6564000000000000000000000000000000000000000000602082015250565b6000612ae2602b836123e7565b9150612aed82612a86565b604082019050919050565b60006020820190508181036000830152612b1181612ad5565b9050919050565b6000604082019050612b2d600083018561206e565b612b3a6020830184611f74565b9392505050565b60008160601b9050919050565b6000612b5982612b41565b9050919050565b6000612b6b82612b4e565b9050919050565b612b83612b7e82611eff565b612b60565b82525050565b6000819050919050565b612ba4612b9f82611f6a565b612b89565b82525050565b600060ff82169050919050565b60008160f81b9050919050565b6000612bcf82612bb7565b9050919050565b612be7612be282612baa565b612bc4565b82525050565b6000819050919050565b6000819050919050565b612c12612c0d82612bed565b612bf7565b82525050565b6000612c248288612b72565b601482019150612c348287612b93565b602082019150612c448286612bd6565b600182019150612c548285612c01565b602082019150612c648284612b93565b6020820191508190509695505050505050565b6000612c8282611f6a565b9150612c8d83611f6a565b925082612c9d57612c9c612358565b5b828206905092915050565b6000612cb3826120c4565b9150612cbe836120c4565b9250828202612ccc816120c4565b9150808214612cde57612cdd612387565b5b5092915050565b6000612cf0826120c4565b9150612cfb836120c4565b9250828201905063ffffffff811115612d1757612d16612387565b5b92915050565b7f53656564206f7574206f6620372d64696769742072616e676500000000000000600082015250565b6000612d536019836123e7565b9150612d5e82612d1d565b602082019050919050565b60006020820190508181036000830152612d8281612d46565b9050919050565b7f53656564206d7573742062652037206469676974730000000000000000000000600082015250565b6000612dbf6015836123e7565b9150612dca82612d89565b602082019050919050565b60006020820190508181036000830152612dee81612db2565b9050919050565b6000612e0082612baa565b9150612e0b83612baa565b9250828203905060ff811115612e2457612e23612387565b5b92915050565b7f496e76616c6964207365636f6e642064696769742076616c7565000000000000600082015250565b6000612e60601a836123e7565b9150612e6b82612e2a565b602082019050919050565b60006020820190508181036000830152612e8f81612e53565b9050919050565b7f496e76616c696420666f757274682064696769742076616c7565000000000000600082015250565b6000612ecc601a836123e7565b9150612ed782612e96565b602082019050919050565b60006020820190508181036000830152612efb81612ebf565b9050919050565b7f496e76616c69642073697874682064696769742076616c756500000000000000600082015250565b6000612f386019836123e7565b9150612f4382612f02565b602082019050919050565b60006020820190508181036000830152612f6781612f2b565b905091905056fea2646970667358221220ecebab5dbcd82e33b5c7aeb27ec429d8029673051a7ec3ac1e4b58a0f9884b4e64736f6c63430008160033",
  "linkReferences": {},
  "deployedLinkReferences": {}
}