{
  "_format": "hh-sol-artifact-1",
  "contractName": "tMegaBunnyVerse",
  "sourceName": "contracts/tMegaBunnyVerse.sol",
  "abi": [
    {
      "inputs": [
        {
          "internalType": "address[]",
          "name": "owners",
          "type": "address[]"
        }
      ],
      "stateMutability": "nonpayable",
      "type": "constructor"
    },
    {
      "inputs": [
        {
          "internalType": "address",
          "name": "spender",
          "type": "address"
        },
        {
          "internalType": "uint256",
          "name": "allowance",
          "type": "uint256"
        },
        {
          "internalType": "uint256",
          "name": "needed",
          "type": "uint256"
        }
      ],
      "name": "ERC20InsufficientAllowance",
      "type": "error"
    },
    {
      "inputs": [
        {
          "internalType": "address",
          "name": "sender",
          "type": "address"
        },
        {
          "internalType": "uint256",
          "name": "balance",
          "type": "uint256"
        },
        {
          "internalType": "uint256",
          "name": "needed",
          "type": "uint256"
        }
      ],
      "name": "ERC20InsufficientBalance",
      "type": "error"
    },
    {
      "inputs": [
        {
          "internalType": "address",
          "name": "approver",
          "type": "address"
        }
      ],
      "name": "ERC20InvalidApprover",
      "type": "error"
    },
    {
      "inputs": [
        {
          "internalType": "address",
          "name": "receiver",
          "type": "address"
        }
      ],
      "name": "ERC20InvalidReceiver",
      "type": "error"
    },
    {
      "inputs": [
        {
          "internalType": "address",
          "name": "sender",
          "type": "address"
        }
      ],
      "name": "ERC20InvalidSender",
      "type": "error"
    },
    {
      "inputs": [
        {
          "internalType": "address",
          "name": "spender",
          "type": "address"
        }
      ],
      "name": "ERC20InvalidSpender",
      "type": "error"
    },
    {
      "inputs": [
        {
          "internalType": "address",
          "name": "owner",
          "type": "address"
        }
      ],
      "name": "OwnableInvalidOwner",
      "type": "error"
    },
    {
      "inputs": [
        {
          "internalType": "address",
          "name": "account",
          "type": "address"
        }
      ],
      "name": "OwnableUnauthorizedAccount",
      "type": "error"
    },
    {
      "anonymous": false,
      "inputs": [
        {
          "indexed": true,
          "internalType": "address",
          "name": "owner",
          "type": "address"
        },
        {
          "indexed": true,
          "internalType": "address",
          "name": "spender",
          "type": "address"
        },
        {
          "indexed": false,
          "internalType": "uint256",
          "name": "value",
          "type": "uint256"
        }
      ],
      "name": "Approval",
      "type": "event"
    },
    {
      "anonymous": false,
      "inputs": [
        {
          "indexed": true,
          "internalType": "address",
          "name": "previousOwner",
          "type": "address"
        },
        {
          "indexed": true,
          "internalType": "address",
          "name": "newOwner",
          "type": "address"
        }
      ],
      "name": "OwnershipTransferred",
      "type": "event"
    },
    {
      "anonymous": false,
      "inputs": [
        {
          "indexed": true,
          "internalType": "address",
          "name": "from",
          "type": "address"
        },
        {
          "indexed": true,
          "internalType": "address",
          "name": "to",
          "type": "address"
        },
        {
          "indexed": false,
          "internalType": "uint256",
          "name": "value",
          "type": "uint256"
        }
      ],
      "name": "Transfer",
      "type": "event"
    },
    {
      "inputs": [
        {
          "internalType": "address",
          "name": "owner",
          "type": "address"
        },
        {
          "internalType": "address",
          "name": "spender",
          "type": "address"
        }
      ],
      "name": "allowance",
      "outputs": [
        {
          "internalType": "uint256",
          "name": "",
          "type": "uint256"
        }
      ],
      "stateMutability": "view",
      "type": "function"
    },
    {
      "inputs": [
        {
          "internalType": "address",
          "name": "spender",
          "type": "address"
        },
        {
          "internalType": "uint256",
          "name": "value",
          "type": "uint256"
        }
      ],
      "name": "approve",
      "outputs": [
        {
          "internalType": "bool",
          "name": "",
          "type": "bool"
        }
      ],
      "stateMutability": "nonpayable",
      "type": "function"
    },
    {
      "inputs": [
        {
          "internalType": "address",
          "name": "account",
          "type": "address"
        }
      ],
      "name": "balanceOf",
      "outputs": [
        {
          "internalType": "uint256",
          "name": "",
          "type": "uint256"
        }
      ],
      "stateMutability": "view",
      "type": "function"
    },
    {
      "inputs": [],
      "name": "decimals",
      "outputs": [
        {
          "internalType": "uint8",
          "name": "",
          "type": "uint8"
        }
      ],
      "stateMutability": "view",
      "type": "function"
    },
    {
      "inputs": [
        {
          "internalType": "address",
          "name": "",
          "type": "address"
        }
      ],
      "name": "isAdmin",
      "outputs": [
        {
          "internalType": "bool",
          "name": "",
          "type": "bool"
        }
      ],
      "stateMutability": "view",
      "type": "function"
    },
    {
      "inputs": [
        {
          "internalType": "address",
          "name": "to",
          "type": "address"
        },
        {
          "internalType": "uint256",
          "name": "amount",
          "type": "uint256"
        }
      ],
      "name": "mint",
      "outputs": [],
      "stateMutability": "nonpayable",
      "type": "function"
    },
    {
      "inputs": [],
      "name": "name",
      "outputs": [
        {
          "internalType": "string",
          "name": "",
          "type": "string"
        }
      ],
      "stateMutability": "view",
      "type": "function"
    },
    {
      "inputs": [],
      "name": "owner",
      "outputs": [
        {
          "internalType": "address",
          "name": "",
          "type": "address"
        }
      ],
      "stateMutability": "view",
      "type": "function"
    },
    {
      "inputs": [],
      "name": "renounceOwnership",
      "outputs": [],
      "stateMutability": "nonpayable",
      "type": "function"
    },
    {
      "inputs": [
        {
          "internalType": "address",
          "name": "user",
          "type": "address"
        },
        {
          "internalType": "bool",
          "name": "status",
          "type": "bool"
        }
      ],
      "name": "setAdmin",
      "outputs": [],
      "stateMutability": "nonpayable",
      "type": "function"
    },
    {
      "inputs": [],
      "name": "symbol",
      "outputs": [
        {
          "internalType": "string",
          "name": "",
          "type": "string"
        }
      ],
      "stateMutability": "view",
      "type": "function"
    },
    {
      "inputs": [],
      "name": "totalSupply",
      "outputs": [
        {
          "internalType": "uint256",
          "name": "",
          "type": "uint256"
        }
      ],
      "stateMutability": "view",
      "type": "function"
    },
    {
      "inputs": [
        {
          "internalType": "address",
          "name": "to",
          "type": "address"
        },
        {
          "internalType": "uint256",
          "name": "value",
          "type": "uint256"
        }
      ],
      "name": "transfer",
      "outputs": [
        {
          "internalType": "bool",
          "name": "",
          "type": "bool"
        }
      ],
      "stateMutability": "nonpayable",
      "type": "function"
    },
    {
      "inputs": [
        {
          "internalType": "address",
          "name": "from",
          "type": "address"
        },
        {
          "internalType": "address",
          "name": "to",
          "type": "address"
        },
        {
          "internalType": "uint256",
          "name": "value",
          "type": "uint256"
        }
      ],
      "name": "transferFrom",
      "outputs": [
        {
          "internalType": "bool",
          "name": "",
          "type": "bool"
        }
      ],
      "stateMutability": "nonpayable",
      "type": "function"
    },
    {
      "inputs": [
        {
          "internalType": "address",
          "name": "newOwner",
          "type": "address"
        }
      ],
      "name": "transferOwnership",
      "outputs": [],
      "stateMutability": "nonpayable",
      "type": "function"
    }
  ],
  "bytecode": "0x60806040523480156200001157600080fd5b5060405162001cef38038062001cef833981810160405281019062000037919062000513565b806000815181106200004e576200004d62000564565b5b60200260200101516040518060400160405280600f81526020017f744d65676142756e6e79566572736500000000000000000000000000000000008152506040518060400160405280600481526020017f744d4256000000000000000000000000000000000000000000000000000000008152508160039081620000d39190620007de565b508060049081620000e59190620007de565b505050600073ffffffffffffffffffffffffffffffffffffffff168173ffffffffffffffffffffffffffffffffffffffff16036200015d5760006040517f1e4fbdf7000000000000000000000000000000000000000000000000000000008152600401620001549190620008d6565b60405180910390fd5b6200016e816200025f60201b60201c565b5060005b8151811015620001ff5760016006600084848151811062000198576200019762000564565b5b602002602001015173ffffffffffffffffffffffffffffffffffffffff1673ffffffffffffffffffffffffffffffffffffffff16815260200190815260200160002060006101000a81548160ff021916908315150217905550808060010191505062000172565b506001600660003373ffffffffffffffffffffffffffffffffffffffff1673ffffffffffffffffffffffffffffffffffffffff16815260200190815260200160002060006101000a81548160ff02191690831515021790555050620008f3565b6000600560009054906101000a900473ffffffffffffffffffffffffffffffffffffffff16905081600560006101000a81548173ffffffffffffffffffffffffffffffffffffffff021916908373ffffffffffffffffffffffffffffffffffffffff1602179055508173ffffffffffffffffffffffffffffffffffffffff168173ffffffffffffffffffffffffffffffffffffffff167f8be0079c531659141344cd1fd0a4f28419497f9722a3daafe3b4186f6b6457e060405160405180910390a35050565b6000604051905090565b600080fd5b600080fd5b600080fd5b6000601f19601f8301169050919050565b7f4e487b7100000000000000000000000000000000000000000000000000000000600052604160045260246000fd5b62000389826200033e565b810181811067ffffffffffffffff82111715620003ab57620003aa6200034f565b5b80604052505050565b6000620003c062000325565b9050620003ce82826200037e565b919050565b600067ffffffffffffffff821115620003f157620003f06200034f565b5b602082029050602081019050919050565b600080fd5b600073ffffffffffffffffffffffffffffffffffffffff82169050919050565b6000620004348262000407565b9050919050565b620004468162000427565b81146200045257600080fd5b50565b60008151905062000466816200043b565b92915050565b6000620004836200047d84620003d3565b620003b4565b90508083825260208201905060208402830185811115620004a957620004a862000402565b5b835b81811015620004d65780620004c1888262000455565b845260208401935050602081019050620004ab565b5050509392505050565b600082601f830112620004f857620004f762000339565b5b81516200050a8482602086016200046c565b91505092915050565b6000602082840312156200052c576200052b6200032f565b5b600082015167ffffffffffffffff8111156200054d576200054c62000334565b5b6200055b84828501620004e0565b91505092915050565b7f4e487b7100000000000000000000000000000000000000000000000000000000600052603260045260246000fd5b600081519050919050565b7f4e487b7100000000000000000000000000000000000000000000000000000000600052602260045260246000fd5b60006002820490506001821680620005e657607f821691505b602082108103620005fc57620005fb6200059e565b5b50919050565b60008190508160005260206000209050919050565b60006020601f8301049050919050565b600082821b905092915050565b600060088302620006667fffffffffffffffffffffffffffffffffffffffffffffffffffffffffffffffff8262000627565b62000672868362000627565b95508019841693508086168417925050509392505050565b6000819050919050565b6000819050919050565b6000620006bf620006b9620006b3846200068a565b62000694565b6200068a565b9050919050565b6000819050919050565b620006db836200069e565b620006f3620006ea82620006c6565b84845462000634565b825550505050565b600090565b6200070a620006fb565b62000717818484620006d0565b505050565b5b818110156200073f576200073360008262000700565b6001810190506200071d565b5050565b601f8211156200078e57620007588162000602565b620007638462000617565b8101602085101562000773578190505b6200078b620007828562000617565b8301826200071c565b50505b505050565b600082821c905092915050565b6000620007b36000198460080262000793565b1980831691505092915050565b6000620007ce8383620007a0565b9150826002028217905092915050565b620007e98262000593565b67ffffffffffffffff8111156200080557620008046200034f565b5b620008118254620005cd565b6200081e82828562000743565b600060209050601f83116001811462000856576000841562000841578287015190505b6200084d8582620007c0565b865550620008bd565b601f198416620008668662000602565b60005b82811015620008905784890151825560018201915060208501945060208101905062000869565b86831015620008b05784890151620008ac601f891682620007a0565b8355505b6001600288020188555050505b505050505050565b620008d08162000427565b82525050565b6000602082019050620008ed6000830184620008c5565b92915050565b6113ec80620009036000396000f3fe608060405234801561001057600080fd5b50600436106100f55760003560e01c80634b0bddd21161009757806395d89b411161006657806395d89b4114610274578063a9059cbb14610292578063dd62ed3e146102c2578063f2fde38b146102f2576100f5565b80634b0bddd21461020057806370a082311461021c578063715018a61461024c5780638da5cb5b14610256576100f5565b806323b872dd116100d357806323b872dd1461016657806324d7806c14610196578063313ce567146101c657806340c10f19146101e4576100f5565b806306fdde03146100fa578063095ea7b31461011857806318160ddd14610148575b600080fd5b61010261030e565b60405161010f9190610f68565b60405180910390f35b610132600480360381019061012d9190611023565b6103a0565b60405161013f919061107e565b60405180910390f35b6101506103c3565b60405161015d91906110a8565b60405180910390f35b610180600480360381019061017b91906110c3565b6103cd565b60405161018d919061107e565b60405180910390f35b6101b060048036038101906101ab9190611116565b6103fc565b6040516101bd919061107e565b60405180910390f35b6101ce61041c565b6040516101db919061115f565b60405180910390f35b6101fe60048036038101906101f99190611023565b610425565b005b61021a600480360381019061021591906111a6565b6104bf565b005b61023660048036038101906102319190611116565b610522565b60405161024391906110a8565b60405180910390f35b61025461056a565b005b61025e61057e565b60405161026b91906111f5565b60405180910390f35b61027c6105a8565b6040516102899190610f68565b60405180910390f35b6102ac60048036038101906102a79190611023565b61063a565b6040516102b9919061107e565b60405180910390f35b6102dc60048036038101906102d79190611210565b61065d565b6040516102e991906110a8565b60405180910390f35b61030c60048036038101906103079190611116565b6106e4565b005b60606003805461031d9061127f565b80601f01602080910402602001604051908101604052809291908181526020018280546103499061127f565b80156103965780601f1061036b57610100808354040283529160200191610396565b820191906000526020600020905b81548152906001019060200180831161037957829003601f168201915b5050505050905090565b6000806103ab61076a565b90506103b8818585610772565b600191505092915050565b6000600254905090565b6000806103d861076a565b90506103e5858285610784565b6103f0858585610819565b60019150509392505050565b60066020528060005260406000206000915054906101000a900460ff1681565b60006012905090565b600660003373ffffffffffffffffffffffffffffffffffffffff1673ffffffffffffffffffffffffffffffffffffffff16815260200190815260200160002060009054906101000a900460ff166104b1576040517f08c379a00000000000000000000000000000000000000000000000000000000081526004016104a8906112fc565b60405180910390fd5b6104bb828261090d565b5050565b6104c761098f565b80600660008473ffffffffffffffffffffffffffffffffffffffff1673ffffffffffffffffffffffffffffffffffffffff16815260200190815260200160002060006101000a81548160ff0219169083151502179055505050565b60008060008373ffffffffffffffffffffffffffffffffffffffff1673ffffffffffffffffffffffffffffffffffffffff168152602001908152602001600020549050919050565b61057261098f565b61057c6000610a16565b565b6000600560009054906101000a900473ffffffffffffffffffffffffffffffffffffffff16905090565b6060600480546105b79061127f565b80601f01602080910402602001604051908101604052809291908181526020018280546105e39061127f565b80156106305780601f1061060557610100808354040283529160200191610630565b820191906000526020600020905b81548152906001019060200180831161061357829003601f168201915b5050505050905090565b60008061064561076a565b9050610652818585610819565b600191505092915050565b6000600160008473ffffffffffffffffffffffffffffffffffffffff1673ffffffffffffffffffffffffffffffffffffffff16815260200190815260200160002060008373ffffffffffffffffffffffffffffffffffffffff1673ffffffffffffffffffffffffffffffffffffffff16815260200190815260200160002054905092915050565b6106ec61098f565b600073ffffffffffffffffffffffffffffffffffffffff168173ffffffffffffffffffffffffffffffffffffffff160361075e5760006040517f1e4fbdf700000000000000000000000000000000000000000000000000000000815260040161075591906111f5565b60405180910390fd5b61076781610a16565b50565b600033905090565b61077f8383836001610adc565b505050565b6000610790848461065d565b90507fffffffffffffffffffffffffffffffffffffffffffffffffffffffffffffffff8110156108135781811015610803578281836040517ffb8f41b20000000000000000000000000000000000000000000000000000000081526004016107fa9392919061131c565b60405180910390fd5b61081284848484036000610adc565b5b50505050565b600073ffffffffffffffffffffffffffffffffffffffff168373ffffffffffffffffffffffffffffffffffffffff160361088b5760006040517f96c6fd1e00000000000000000000000000000000000000000000000000000000815260040161088291906111f5565b60405180910390fd5b600073ffffffffffffffffffffffffffffffffffffffff168273ffffffffffffffffffffffffffffffffffffffff16036108fd5760006040517fec442f050000000000000000000000000000000000000000000000000000000081526004016108f491906111f5565b60405180910390fd5b610908838383610cb3565b505050565b600073ffffffffffffffffffffffffffffffffffffffff168273ffffffffffffffffffffffffffffffffffffffff160361097f5760006040517fec442f0500000000000000000000000000000000000000000000000000000000815260040161097691906111f5565b60405180910390fd5b61098b60008383610cb3565b5050565b61099761076a565b73ffffffffffffffffffffffffffffffffffffffff166109b561057e565b73ffffffffffffffffffffffffffffffffffffffff1614610a14576109d861076a565b6040517f118cdaa7000000000000000000000000000000000000000000000000000000008152600401610a0b91906111f5565b60405180910390fd5b565b6000600560009054906101000a900473ffffffffffffffffffffffffffffffffffffffff16905081600560006101000a81548173ffffffffffffffffffffffffffffffffffffffff021916908373ffffffffffffffffffffffffffffffffffffffff1602179055508173ffffffffffffffffffffffffffffffffffffffff168173ffffffffffffffffffffffffffffffffffffffff167f8be0079c531659141344cd1fd0a4f28419497f9722a3daafe3b4186f6b6457e060405160405180910390a35050565b600073ffffffffffffffffffffffffffffffffffffffff168473ffffffffffffffffffffffffffffffffffffffff1603610b4e5760006040517fe602df05000000000000000000000000000000000000000000000000000000008152600401610b4591906111f5565b60405180910390fd5b600073ffffffffffffffffffffffffffffffffffffffff168373ffffffffffffffffffffffffffffffffffffffff1603610bc05760006040517f94280d62000000000000000000000000000000000000000000000000000000008152600401610bb791906111f5565b60405180910390fd5b81600160008673ffffffffffffffffffffffffffffffffffffffff1673ffffffffffffffffffffffffffffffffffffffff16815260200190815260200160002060008573ffffffffffffffffffffffffffffffffffffffff1673ffffffffffffffffffffffffffffffffffffffff168152602001908152602001600020819055508015610cad578273ffffffffffffffffffffffffffffffffffffffff168473ffffffffffffffffffffffffffffffffffffffff167f8c5be1e5ebec7d5bd14f71427d1e84f3dd0314c0f7b2291e5b200ac8c7c3b92584604051610ca491906110a8565b60405180910390a35b50505050565b600073ffffffffffffffffffffffffffffffffffffffff168373ffffffffffffffffffffffffffffffffffffffff1603610d05578060026000828254610cf99190611382565b92505081905550610dd8565b60008060008573ffffffffffffffffffffffffffffffffffffffff1673ffffffffffffffffffffffffffffffffffffffff16815260200190815260200160002054905081811015610d91578381836040517fe450d38c000000000000000000000000000000000000000000000000000000008152600401610d889392919061131c565b60405180910390fd5b8181036000808673ffffffffffffffffffffffffffffffffffffffff1673ffffffffffffffffffffffffffffffffffffffff16815260200190815260200160002081905550505b600073ffffffffffffffffffffffffffffffffffffffff168273ffffffffffffffffffffffffffffffffffffffff1603610e215780600260008282540392505081905550610e6e565b806000808473ffffffffffffffffffffffffffffffffffffffff1673ffffffffffffffffffffffffffffffffffffffff168152602001908152602001600020600082825401925050819055505b8173ffffffffffffffffffffffffffffffffffffffff168373ffffffffffffffffffffffffffffffffffffffff167fddf252ad1be2c89b69c2b068fc378daa952ba7f163c4a11628f55a4df523b3ef83604051610ecb91906110a8565b60405180910390a3505050565b600081519050919050565b600082825260208201905092915050565b60005b83811015610f12578082015181840152602081019050610ef7565b60008484015250505050565b6000601f19601f8301169050919050565b6000610f3a82610ed8565b610f448185610ee3565b9350610f54818560208601610ef4565b610f5d81610f1e565b840191505092915050565b60006020820190508181036000830152610f828184610f2f565b905092915050565b600080fd5b600073ffffffffffffffffffffffffffffffffffffffff82169050919050565b6000610fba82610f8f565b9050919050565b610fca81610faf565b8114610fd557600080fd5b50565b600081359050610fe781610fc1565b92915050565b6000819050919050565b61100081610fed565b811461100b57600080fd5b50565b60008135905061101d81610ff7565b92915050565b6000806040838503121561103a57611039610f8a565b5b600061104885828601610fd8565b92505060206110598582860161100e565b9150509250929050565b60008115159050919050565b61107881611063565b82525050565b6000602082019050611093600083018461106f565b92915050565b6110a281610fed565b82525050565b60006020820190506110bd6000830184611099565b92915050565b6000806000606084860312156110dc576110db610f8a565b5b60006110ea86828701610fd8565b93505060206110fb86828701610fd8565b925050604061110c8682870161100e565b9150509250925092565b60006020828403121561112c5761112b610f8a565b5b600061113a84828501610fd8565b91505092915050565b600060ff82169050919050565b61115981611143565b82525050565b60006020820190506111746000830184611150565b92915050565b61118381611063565b811461118e57600080fd5b50565b6000813590506111a08161117a565b92915050565b600080604083850312156111bd576111bc610f8a565b5b60006111cb85828601610fd8565b92505060206111dc85828601611191565b9150509250929050565b6111ef81610faf565b82525050565b600060208201905061120a60008301846111e6565b92915050565b6000806040838503121561122757611226610f8a565b5b600061123585828601610fd8565b925050602061124685828601610fd8565b9150509250929050565b7f4e487b7100000000000000000000000000000000000000000000000000000000600052602260045260246000fd5b6000600282049050600182168061129757607f821691505b6020821081036112aa576112a9611250565b5b50919050565b7f4e6f7420617574686f72697a6564000000000000000000000000000000000000600082015250565b60006112e6600e83610ee3565b91506112f1826112b0565b602082019050919050565b60006020820190508181036000830152611315816112d9565b9050919050565b600060608201905061133160008301866111e6565b61133e6020830185611099565b61134b6040830184611099565b949350505050565b7f4e487b7100000000000000000000000000000000000000000000000000000000600052601160045260246000fd5b600061138d82610fed565b915061139883610fed565b92508282019050808211156113b0576113af611353565b5b9291505056fea2646970667358221220089620d8166c29ff81b05be0e92419a3f719d072d3be34099f75d7b38039906364736f6c63430008160033",
  "linkReferences": {},
  "deployedLinkReferences": {}
}